{
  "contractName": "EZSwap",
  "abi": [
    {
      "inputs": [
        {
          "internalType": "address",
          "name": "_token",
          "type": "address"
        }
      ],
      "stateMutability": "nonpayable",
      "type": "constructor"
    },
    {
      "anonymous": false,
      "inputs": [
        {
          "indexed": false,
          "internalType": "address",
          "name": "account",
          "type": "address"
        },
        {
          "indexed": false,
          "internalType": "address",
          "name": "token",
          "type": "address"
        },
        {
          "indexed": false,
          "internalType": "uint256",
          "name": "amount",
          "type": "uint256"
        }
      ],
      "name": "TokensPurchased",
      "type": "event"
    },
    {
      "anonymous": false,
      "inputs": [
        {
          "indexed": false,
          "internalType": "address",
          "name": "account",
          "type": "address"
        },
        {
          "indexed": false,
          "internalType": "address",
          "name": "token",
          "type": "address"
        },
        {
          "indexed": false,
          "internalType": "uint256",
          "name": "amount",
          "type": "uint256"
        }
      ],
      "name": "TokensSold",
      "type": "event"
    },
    {
      "inputs": [],
      "name": "name",
      "outputs": [
        {
          "internalType": "string",
          "name": "",
          "type": "string"
        }
      ],
      "stateMutability": "view",
      "type": "function"
    },
    {
      "inputs": [],
      "name": "owner",
      "outputs": [
        {
          "internalType": "address",
          "name": "",
          "type": "address"
        }
      ],
      "stateMutability": "view",
      "type": "function"
    },
    {
      "inputs": [],
      "name": "token0",
      "outputs": [
        {
          "internalType": "contract IERC20",
          "name": "",
          "type": "address"
        }
      ],
      "stateMutability": "view",
      "type": "function"
    },
    {
      "inputs": [],
      "name": "tokenAddress",
      "outputs": [
        {
          "internalType": "address",
          "name": "",
          "type": "address"
        }
      ],
      "stateMutability": "view",
      "type": "function"
    },
    {
      "inputs": [
        {
          "internalType": "uint256",
          "name": "_tokenAmount",
          "type": "uint256"
        }
      ],
      "name": "addLiquidity",
      "outputs": [],
      "stateMutability": "payable",
      "type": "function"
    },
    {
      "inputs": [],
      "name": "getReserve",
      "outputs": [
        {
          "internalType": "uint256",
          "name": "",
          "type": "uint256"
        }
      ],
      "stateMutability": "view",
      "type": "function"
    },
    {
      "inputs": [
        {
          "internalType": "uint256",
          "name": "_ethAmountSold",
          "type": "uint256"
        }
      ],
      "name": "getTokenAmount",
      "outputs": [
        {
          "internalType": "uint256",
          "name": "",
          "type": "uint256"
        }
      ],
      "stateMutability": "view",
      "type": "function"
    },
    {
      "inputs": [
        {
          "internalType": "uint256",
          "name": "_minTokens",
          "type": "uint256"
        }
      ],
      "name": "ethToTokenSwap",
      "outputs": [],
      "stateMutability": "payable",
      "type": "function"
    },
    {
      "inputs": [
        {
          "internalType": "uint256",
          "name": "_tokenAmountSold",
          "type": "uint256"
        }
      ],
      "name": "getEthAmount",
      "outputs": [
        {
          "internalType": "uint256",
          "name": "",
          "type": "uint256"
        }
      ],
      "stateMutability": "view",
      "type": "function"
    },
    {
      "inputs": [
        {
          "internalType": "uint256",
          "name": "_tokensWannaSold",
          "type": "uint256"
        }
      ],
      "name": "tokenToEthSwap",
      "outputs": [],
      "stateMutability": "nonpayable",
      "type": "function"
    }
  ],
  "bytecode": "0x60a06040526040518060400160405280600681526020017f455a5377617000000000000000000000000000000000000000000000000000008152506000908051906020019062000051929190620001b5565b503480156200005f57600080fd5b50604051620017e5380380620017e58339818101604052810190620000859190620002cf565b600073ffffffffffffffffffffffffffffffffffffffff168173ffffffffffffffffffffffffffffffffffffffff161415620000f8576040517f08c379a0000000000000000000000000000000000000000000000000000000008152600401620000ef9062000362565b60405180910390fd5b33600160006101000a81548173ffffffffffffffffffffffffffffffffffffffff021916908373ffffffffffffffffffffffffffffffffffffffff16021790555080600260006101000a81548173ffffffffffffffffffffffffffffffffffffffff021916908373ffffffffffffffffffffffffffffffffffffffff1602179055508073ffffffffffffffffffffffffffffffffffffffff1660808173ffffffffffffffffffffffffffffffffffffffff168152505050620003e9565b828054620001c390620003b3565b90600052602060002090601f016020900481019282620001e7576000855562000233565b82601f106200020257805160ff191683800117855562000233565b8280016001018555821562000233579182015b828111156200023257825182559160200191906001019062000215565b5b50905062000242919062000246565b5090565b5b808211156200026157600081600090555060010162000247565b5090565b600080fd5b600073ffffffffffffffffffffffffffffffffffffffff82169050919050565b600062000297826200026a565b9050919050565b620002a9816200028a565b8114620002b557600080fd5b50565b600081519050620002c9816200029e565b92915050565b600060208284031215620002e857620002e762000265565b5b6000620002f884828501620002b8565b91505092915050565b600082825260208201905092915050565b7f496e76616c696420746f6b656e20616464726573730000000000000000000000600082015250565b60006200034a60158362000301565b9150620003578262000312565b602082019050919050565b600060208201905081810360008301526200037d816200033b565b9050919050565b7f4e487b7100000000000000000000000000000000000000000000000000000000600052602260045260246000fd5b60006002820490506001821680620003cc57607f821691505b60208210811415620003e357620003e262000384565b5b50919050565b6080516113af62000436600039600081816102f50152818161031a0152818161045001528181610576015281816106520152818161071501528181610a590152610b3601526113af6000f3fe6080604052600436106100ae576000357c0100000000000000000000000000000000000000000000000000000000900480638da5cb5b116100765780638da5cb5b146101795780638fc7a25d146101a45780639d76ea58146101e1578063c2507ac11461020c578063f979dcd714610249576100ae565b806306fdde03146100b35780630dfe1681146100de5780634796915c1461010957806351c6590a1461013257806359bf5d391461014e575b600080fd5b3480156100bf57600080fd5b506100c8610265565b6040516100d59190610c86565b60405180910390f35b3480156100ea57600080fd5b506100f36102f3565b6040516101009190610d27565b60405180910390f35b34801561011557600080fd5b50610130600480360381019061012b9190610d7d565b610317565b005b61014c60048036038101906101479190610d7d565b6105b2565b005b34801561015a57600080fd5b50610163610711565b6040516101709190610db9565b60405180910390f35b34801561018557600080fd5b5061018e6107ce565b60405161019b9190610df5565b60405180910390f35b3480156101b057600080fd5b506101cb60048036038101906101c69190610d7d565b6107f4565b6040516101d89190610db9565b60405180910390f35b3480156101ed57600080fd5b506101f66108b1565b6040516102039190610df5565b60405180910390f35b34801561021857600080fd5b50610233600480360381019061022e9190610d7d565b6108d7565b6040516102409190610db9565b60405180910390f35b610263600480360381019061025e9190610d7d565b610994565b005b6000805461027290610e3f565b80601f016020809104026020016040519081016040528092919081815260200182805461029e90610e3f565b80156102eb5780601f106102c0576101008083540402835291602001916102eb565b820191906000526020600020905b8154815290600101906020018083116102ce57829003601f168201915b505050505081565b7f000000000000000000000000000000000000000000000000000000000000000081565b807f000000000000000000000000000000000000000000000000000000000000000073ffffffffffffffffffffffffffffffffffffffff166370a08231336040518263ffffffff167c010000000000000000000000000000000000000000000000000000000002815260040161038d9190610df5565b602060405180830381865afa1580156103aa573d6000803e3d6000fd5b505050506040513d601f19601f820116820180604052508101906103ce9190610e86565b10156103d957600080fd5b60006103e3610711565b905060008111610428576040517f08c379a000000000000000000000000000000000000000000000000000000000815260040161041f90610eff565b60405180910390fd5b600061044c83833073ffffffffffffffffffffffffffffffffffffffff1631610b72565b90507f000000000000000000000000000000000000000000000000000000000000000073ffffffffffffffffffffffffffffffffffffffff166323b872dd3330866040518463ffffffff167c01000000000000000000000000000000000000000000000000000000000281526004016104c793929190610f1f565b6020604051808303816000875af11580156104e6573d6000803e3d6000fd5b505050506040513d601f19601f8201168201806040525081019061050a9190610f8e565b503373ffffffffffffffffffffffffffffffffffffffff166108fc829081150290604051600060405180830381858888f19350505050158015610551573d6000803e3d6000fd5b507f481809cba951bfbd752234d0504d4719277804f87f6e0da1b5b486c80d808fe4337f0000000000000000000000000000000000000000000000000000000000000000836040516105a593929190610f1f565b60405180910390a1505050565b600160009054906101000a900473ffffffffffffffffffffffffffffffffffffffff168073ffffffffffffffffffffffffffffffffffffffff163373ffffffffffffffffffffffffffffffffffffffff161461060d57600080fd5b60008211610650576040517f08c379a00000000000000000000000000000000000000000000000000000000081526004016106479061102d565b60405180910390fd5b7f000000000000000000000000000000000000000000000000000000000000000073ffffffffffffffffffffffffffffffffffffffff166323b872dd3330856040518463ffffffff167c01000000000000000000000000000000000000000000000000000000000281526004016106c993929190610f1f565b6020604051808303816000875af11580156106e8573d6000803e3d6000fd5b505050506040513d601f19601f8201168201806040525081019061070c9190610f8e565b505050565b60007f000000000000000000000000000000000000000000000000000000000000000073ffffffffffffffffffffffffffffffffffffffff166370a08231306040518263ffffffff167c01000000000000000000000000000000000000000000000000000000000281526004016107889190610df5565b602060405180830381865afa1580156107a5573d6000803e3d6000fd5b505050506040513d601f19601f820116820180604052508101906107c99190610e86565b905090565b600160009054906101000a900473ffffffffffffffffffffffffffffffffffffffff1681565b6000808211610838576040517f08c379a000000000000000000000000000000000000000000000000000000000815260040161082f906110bf565b60405180910390fd5b6000610842610711565b905060008111610887576040517f08c379a000000000000000000000000000000000000000000000000000000000815260040161087e90610eff565b60405180910390fd5b6108a983823073ffffffffffffffffffffffffffffffffffffffff1631610b72565b915050919050565b600260009054906101000a900473ffffffffffffffffffffffffffffffffffffffff1681565b600080821161091b576040517f08c379a000000000000000000000000000000000000000000000000000000000815260040161091290611151565b60405180910390fd5b6000610925610711565b90506000811161096a576040517f08c379a000000000000000000000000000000000000000000000000000000000815260040161096190610eff565b60405180910390fd5b61098c833073ffffffffffffffffffffffffffffffffffffffff163183610b72565b915050919050565b600061099e610711565b9050600081116109e3576040517f08c379a00000000000000000000000000000000000000000000000000000000081526004016109da90610eff565b60405180910390fd5b6000610a1234343073ffffffffffffffffffffffffffffffffffffffff1631610a0c91906111a0565b84610b72565b905082811015610a57576040517f08c379a0000000000000000000000000000000000000000000000000000000008152600401610a4e90611220565b60405180910390fd5b7f000000000000000000000000000000000000000000000000000000000000000073ffffffffffffffffffffffffffffffffffffffff1663a9059cbb33836040518363ffffffff167c0100000000000000000000000000000000000000000000000000000000028152600401610ace929190611240565b6020604051808303816000875af1158015610aed573d6000803e3d6000fd5b505050506040513d601f19601f82011682018060405250810190610b119190610f8e565b507ff9b4eb3e43eebbf559e9b96ceff1c786a7edab2938c7f5f80678197c2e0edba5337f000000000000000000000000000000000000000000000000000000000000000083604051610b6593929190610f1f565b60405180910390a1505050565b60008083118015610b835750600082115b610bc2576040517f08c379a0000000000000000000000000000000000000000000000000000000008152600401610bb990610eff565b60405180910390fd5b8383610bce9190611269565b8285610bda91906112bf565b610be49190611348565b90509392505050565b600081519050919050565b600082825260208201905092915050565b60005b83811015610c27578082015181840152602081019050610c0c565b83811115610c36576000848401525b50505050565b6000601f19601f8301169050919050565b6000610c5882610bed565b610c628185610bf8565b9350610c72818560208601610c09565b610c7b81610c3c565b840191505092915050565b60006020820190508181036000830152610ca08184610c4d565b905092915050565b600073ffffffffffffffffffffffffffffffffffffffff82169050919050565b6000819050919050565b6000610ced610ce8610ce384610ca8565b610cc8565b610ca8565b9050919050565b6000610cff82610cd2565b9050919050565b6000610d1182610cf4565b9050919050565b610d2181610d06565b82525050565b6000602082019050610d3c6000830184610d18565b92915050565b600080fd5b6000819050919050565b610d5a81610d47565b8114610d6557600080fd5b50565b600081359050610d7781610d51565b92915050565b600060208284031215610d9357610d92610d42565b5b6000610da184828501610d68565b91505092915050565b610db381610d47565b82525050565b6000602082019050610dce6000830184610daa565b92915050565b6000610ddf82610ca8565b9050919050565b610def81610dd4565b82525050565b6000602082019050610e0a6000830184610de6565b92915050565b7f4e487b7100000000000000000000000000000000000000000000000000000000600052602260045260246000fd5b60006002820490506001821680610e5757607f821691505b60208210811415610e6b57610e6a610e10565b5b50919050565b600081519050610e8081610d51565b92915050565b600060208284031215610e9c57610e9b610d42565b5b6000610eaa84828501610e71565b91505092915050565b7f496e76616c6964206c6971756964697479207265736572766573000000000000600082015250565b6000610ee9601a83610bf8565b9150610ef482610eb3565b602082019050919050565b60006020820190508181036000830152610f1881610edc565b9050919050565b6000606082019050610f346000830186610de6565b610f416020830185610de6565b610f4e6040830184610daa565b949350505050565b60008115159050919050565b610f6b81610f56565b8114610f7657600080fd5b50565b600081519050610f8881610f62565b92915050565b600060208284031215610fa457610fa3610d42565b5b6000610fb284828501610f79565b91505092915050565b7f546f6b656e2064656661756c74206c697175696469747920616d6f756e74206360008201527f616e6e6f7420626520302e000000000000000000000000000000000000000000602082015250565b6000611017602b83610bf8565b915061102282610fbb565b604082019050919050565b600060208201905081810360008301526110468161100a565b9050919050565b7f506c65617365206d616b65207375726520546f6b656e20696e7075742069732060008201527f3e20300000000000000000000000000000000000000000000000000000000000602082015250565b60006110a9602383610bf8565b91506110b48261104d565b604082019050919050565b600060208201905081810360008301526110d88161109c565b9050919050565b7f506c65617365206d616b6520737572652045544820696e707574206973203e2060008201527f3000000000000000000000000000000000000000000000000000000000000000602082015250565b600061113b602183610bf8565b9150611146826110df565b604082019050919050565b6000602082019050818103600083015261116a8161112e565b9050919050565b7f4e487b7100000000000000000000000000000000000000000000000000000000600052601160045260246000fd5b60006111ab82610d47565b91506111b683610d47565b9250828210156111c9576111c8611171565b5b828203905092915050565b7f496e73756666696369656e7420746f6b656e2072657365727665730000000000600082015250565b600061120a601b83610bf8565b9150611215826111d4565b602082019050919050565b60006020820190508181036000830152611239816111fd565b9050919050565b60006040820190506112556000830185610de6565b6112626020830184610daa565b9392505050565b600061127482610d47565b915061127f83610d47565b9250827fffffffffffffffffffffffffffffffffffffffffffffffffffffffffffffffff038211156112b4576112b3611171565b5b828201905092915050565b60006112ca82610d47565b91506112d583610d47565b9250817fffffffffffffffffffffffffffffffffffffffffffffffffffffffffffffffff048311821515161561130e5761130d611171565b5b828202905092915050565b7f4e487b7100000000000000000000000000000000000000000000000000000000600052601260045260246000fd5b600061135382610d47565b915061135e83610d47565b92508261136e5761136d611319565b5b82820490509291505056fea264697066735822122063e5779129ba6a36c44377e46081d9224bd3e1072ac17996a2af970ee7a9c80664736f6c634300080c0033",
  "immutableReferences": {
    "12": [
      {
        "length": 32,
        "start": 757
      },
      {
        "length": 32,
        "start": 794
      },
      {
        "length": 32,
        "start": 1104
      },
      {
        "length": 32,
        "start": 1398
      },
      {
        "length": 32,
        "start": 1618
      },
      {
        "length": 32,
        "start": 1813
      },
      {
        "length": 32,
        "start": 2649
      },
      {
        "length": 32,
        "start": 2870
      }
    ]
  },
  "source": "// SPDX-License-Identifier: MIT\r\npragma solidity ^0.8.12;\r\n\r\nimport \"./KFCToken.sol\";\r\n\r\ncontract EZSwap{\r\n    string public name = \"EZSwap\";\r\n    address public owner;\r\n    address public tokenAddress;\r\n    IERC20 public immutable token0;\r\n\r\n    mapping(address => uint) balanceOf;\r\n    \r\n    modifier onlyBy(address _owner) {\r\n      require(msg.sender == _owner);\r\n      _;\r\n    }\r\n    \r\n    event TokensPurchased(\r\n        address account,\r\n        address token,\r\n        uint amount\r\n    );\r\n    \r\n    event TokensSold(\r\n        address account,\r\n        address token,\r\n        uint amount\r\n    );\r\n    \r\n    // Initiate this contract with KFCToken address and set msg.sender as this contract owner\r\n    constructor(address _token) {\r\n        require(_token != address(0), \"Invalid token address\");\r\n        owner = msg.sender;\r\n        tokenAddress = _token;\r\n        token0 = IERC20(_token);\r\n    }\r\n\r\n    // Only contract owner can add liquidity in this case\r\n    // KFCToken side need to approve this contract to transfer token into here as liquidity\r\n    // Need to transfer ETH into this contract simultaneously\r\n    function addLiquidity(uint256 _tokenAmount) public payable onlyBy(owner){\r\n        require(_tokenAmount > 0, \"Token default liquidity amount cannot be 0.\");\r\n        token0.transferFrom(msg.sender, address(this), _tokenAmount);\r\n    }\r\n\r\n    // Get this contract's Token reserve \r\n    function getReserve() public view returns (uint256) {\r\n        return token0.balanceOf(address(this));\r\n    }\r\n\r\n    /////////////////////////////////XYK Formula///////////////////////////////////////\r\n    // x = ETH, y = KFCToken\r\n    // XYK formula: In order to exchange y with x, it is (x + dx)(y - dy) = k \r\n     /*\r\n        xy = k\r\n        (x + dx)(y - dy) = k\r\n        y - dy = k / (x + dx)\r\n        y - k / (x + dx) = dy\r\n        y - xy / (x + dx) = dy\r\n        (yx + ydx - xy) / (x + dx) = dy\r\n        dy = (y * dx) / (x + dx) becoming this --> amountOut = (reserveOut * amountIn) / (reserveIn + amountIn);   \r\n    */\r\n    // To maintain constant k, we know how many dy amount need to minus from the pools but dont know how many x need to bank in\r\n    // if want to get dy amount of y, then check how many x amount user need to bank in, vise versa\r\n    function calculateAmount(uint256 input, uint256 reserveIn, uint256 reserveOut) private pure returns (uint256) {\r\n        require(reserveIn > 0 && reserveOut > 0, \"Invalid liquidity reserves\");\r\n        return (input * reserveOut) / (reserveIn + input);\r\n    }\r\n\r\n    /////////////////////////////////ETH -> KFCToken///////////////////////////////////\r\n    function getTokenAmount(uint256 _ethAmountSold) public view returns (uint256) {\r\n        require(_ethAmountSold > 0, \"Please make sure ETH input is > 0\");\r\n        uint256 tokenReserve = getReserve();\r\n        require(tokenReserve > 0, \"Invalid liquidity reserves\");\r\n        return calculateAmount(_ethAmountSold, address(this).balance, tokenReserve);\r\n    }\r\n\r\n    // Use ETH to buy KFCToken, if 1 ETH input then pass in like: ethToTokenSwap(1)\r\n    function ethToTokenSwap(uint256 _minTokens) public payable {\r\n        uint256 tokenReserve = getReserve();\r\n        require(tokenReserve > 0, \"Invalid liquidity reserves\");\r\n\r\n        uint256 tokensBought =calculateAmount(msg.value, address(this).balance - msg.value, tokenReserve);\r\n        require(tokensBought >= _minTokens, \"Insufficient token reserves\");\r\n\r\n        token0.transfer(msg.sender, tokensBought);\r\n\r\n        emit TokensPurchased(msg.sender, address(token0), tokensBought);\r\n    }\r\n\r\n    /////////////////////////////////KFCToken -> ETH///////////////////////////////////\r\n    function getEthAmount(uint256 _tokenAmountSold) public view returns (uint256) {\r\n        require(_tokenAmountSold > 0, \"Please make sure Token input is > 0\");\r\n        uint256 tokenReserve = getReserve();\r\n        require(tokenReserve > 0, \"Invalid liquidity reserves\");\r\n        return calculateAmount(_tokenAmountSold, tokenReserve, address(this).balance);\r\n    }\r\n\r\n    // Sell KFCToken to get ETH\r\n    function tokenToEthSwap(uint256 _tokensWannaSold) public {\r\n        // User can't sell more tokens than they have\r\n        require(token0.balanceOf(msg.sender) >= _tokensWannaSold);\r\n        uint256 tokenReserve = getReserve();\r\n        require(tokenReserve > 0, \"Invalid liquidity reserves\");\r\n\r\n        uint256 ethBought = calculateAmount(_tokensWannaSold, tokenReserve, address(this).balance);\r\n\r\n        token0.transferFrom(msg.sender, address(this), _tokensWannaSold);\r\n        payable(msg.sender).transfer(ethBought);\r\n\r\n        emit TokensSold(msg.sender, address(token0), ethBought);\r\n    }\r\n}\r\n\r\ninterface IERC20 {\r\n    function totalSupply() external view returns (uint);\r\n\r\n    function balanceOf(address account) external view returns (uint);\r\n\r\n    function transfer(address recipient, uint amount) external returns (bool);\r\n\r\n    function allowance(address owner, address spender) external view returns (uint);\r\n\r\n    function approve(address spender, uint amount) external returns (bool);\r\n\r\n    function transferFrom(\r\n        address sender,\r\n        address recipient,\r\n        uint amount\r\n    ) external returns (bool);\r\n\r\n    event Transfer(address indexed from, address indexed to, uint amount);\r\n    event Approval(address indexed owner, address indexed spender, uint amount);\r\n}",
  "sourcePath": "C:\\Users\\KHOng\\Desktop\\ezswap-app\\contracts\\EZSwap.sol",
  "compiler": {
    "name": "solc",
    "version": "0.8.12+commit.f00d7308.Emscripten.clang"
  },
  "schemaVersion": "3.4.16",
  "updatedAt": "2024-08-29T03:35:40.376Z",
  "devdoc": {
    "kind": "dev",
    "methods": {},
    "version": 1
  },
  "userdoc": {
    "kind": "user",
    "methods": {},
    "version": 1
  }
}